:108400000070002001880000938B0000998B000011
:108410009F8B0000A58B0000AB8B000000000000CC
:10842000000000000000000000000000B18B000010
:10843000B78B000000000000BD8B0000C38B000064
:108440008D8B00008D8B00008D8B00008D8B0000CC
:108450008D8B00008D8B00008D8B00008D8B0000BC
:108460008D8B00008D8B00008D8B00008D8B0000AC
:108470008D8B00008D8B00008D8B00008D8B00009C
:1087F0008D8B00008D8B00008D8B0000FFFFFFFF35
:1088000080B500AF00F006F800F00AF800F024F898
:1088100000BF80BD80B400AF00BFBD4680BC7047C4
:1088200080B400AF00BFBD4680BC704780B483B049
:1088300000AF786005E07B68013B7B60054A7B68A0
:1088400013607B68002BF6D100BF00BF0C37BD461C
:1088500080BC70471080FF1F80B500AF0B2103481C
:1088600000F00AF90248FFF7E1FFF7E700F00F40D8
:10887000F049020080B483B000AF78600B46FB7013
:10888000FA787B684FF4807143F8221000BF0C37F0
:10889000BD4680BC7047000080B400AF00BF0C4BE9
:1088A0001B780B4B1B78DBB2094A43F03003DBB279
:1088B0001370074B1B78DBB2054A63F07F03DBB212
:1088C000137000BF024B1B7800BFBD4680BC7047D1
:1088D0000000024080B400AF00BF044B1B78034B84
:1088E00000221A7100BFBD4680BC704700000240E4
:1088F00080B400AF00BF044B1B78034B01221A71F8
:1089000000BFBD4680BC70470000024080B400AF8D
:1089100000BF044B1B78034B02221A7100BFBD46F7
:1089200080BC70470000024080B500AF00BF044B20
:108930001B78034B07221A71FFF7AEFF00BF80BD03
:108940000000024080B400AF00BF044B1B78034B13
:1089500008221A7100BFBD4680BC7047000002406B
:1089600080B400AF00BF044B1B78034B09221A717F
:1089700000BFBD4680BC70470000024080B400AF1D
:1089800000BF044B1B78034B0B221A7100BFBD467E
:1089900080BC70470000024080B400AF00BF044BB1
:1089A0001B78034B40221A7100BFBD4680BC704744
:1089B0000000024080B400AF00BF044B1B78034BA3
:1089C00041221A7100BFBD4680BC704700000240C2
:1089D00080B400AF00BF044B1B78034B43221A71D5
:1089E00000BFBD4680BC70470000024080B400AFAD
:1089F00000BF044B1B78034B44221A7100BFBD46D5
:108A000080BC70470000024080B400AF00BF044B40
:108A10001B78034B45221A7100BFBD4680BC7047CE
:108A20000000024080B400AF00BF044B1B78034B32
:108A300049221A7100BFBD4680BC70470000024049
:108A400080B400AF00BF044B1B78034B80221A7127
:108A500000BFBD4680BC70470000024080B400AF3C
:108A600000BF044B1B78034B81221A7100BFBD4627
:108A700080BC70470000024080B483B000AF7860D3
:108A80000B46FB707B68DB68FA78012101FA02F281
:108A90001A437B68DA6000BF0C37BD4680BC704764
:108AA00080B483B000AF78600B46FB707B685B6876
:108AB000FA78012101FA02F21A437B685A6000BF7A
:108AC0000C37BD4680BC704780B483B000AF78607F
:108AD0000B46FB707B689B68FA78012101FA02F271
:108AE0001A437B689A6000BF0C37BD4680BC704754
:108AF00080B483B000AF78600B46FB707B685B6925
:108B0000FA78012101FA02F21A437B685A6100BF28
:108B10000C37BD4680BC704780B483B000AF78602E
:108B200039607B681A683B681A437B681A6000BF2B
:108B30000C37BD4680BC704780B400AF074B084A75
:108B40005A60064B4FF6FF729A60044B4FF4045282
:108B50001A6000BFBD4680BC704700BF00200540C2
:108B600020C528D980B400AF034B044A5A6000BF27
:108B7000BD4680BC704700BF0020054002A680B4FF
:108B800080B400AF00BFBD4680BC704780B400AF6A
:108B9000FEE780B400AFFEE780B400AFFEE780B42C
:108BA00000AFFEE780B400AFFEE780B400AFFEE7A1
:108BB00080B400AFFEE780B400AFFEE780B400AF42
:108BC000FEE780B400AFFEE780B400AF064B4FF085
:108BD0008042C3F82421044B4FF08042C3F828217F
:0C8BE00000BFBD4680BC7047005006403E
:108BEC00FFFFFFFFFFFFFFFFFFFFFFFFFFFFFFFF89
:040000030000880071
:00000001FF
